{
  "contractName": "Transaction",
  "abi": [
    {
      "anonymous": false,
      "inputs": [
        {
          "indexed": false,
          "internalType": "address",
          "name": "receiver",
          "type": "address"
        },
        {
          "indexed": false,
          "internalType": "uint256",
          "name": "id",
          "type": "uint256"
        }
      ],
      "name": "addVente",
      "type": "event"
    },
    {
      "anonymous": false,
      "inputs": [
        {
          "indexed": false,
          "internalType": "uint256",
          "name": "id",
          "type": "uint256"
        }
      ],
      "name": "cancel",
      "type": "event"
    },
    {
      "anonymous": false,
      "inputs": [
        {
          "indexed": false,
          "internalType": "uint256",
          "name": "id",
          "type": "uint256"
        }
      ],
      "name": "confirm",
      "type": "event"
    },
    {
      "constant": true,
      "inputs": [
        {
          "internalType": "uint256",
          "name": "",
          "type": "uint256"
        }
      ],
      "name": "achatToOwner",
      "outputs": [
        {
          "internalType": "address",
          "name": "",
          "type": "address"
        }
      ],
      "payable": false,
      "stateMutability": "view",
      "type": "function"
    },
    {
      "constant": true,
      "inputs": [
        {
          "internalType": "address",
          "name": "",
          "type": "address"
        }
      ],
      "name": "ownerAchatCount",
      "outputs": [
        {
          "internalType": "uint256",
          "name": "",
          "type": "uint256"
        }
      ],
      "payable": false,
      "stateMutability": "view",
      "type": "function"
    },
    {
      "constant": true,
      "inputs": [
        {
          "internalType": "address",
          "name": "",
          "type": "address"
        }
      ],
      "name": "ownerVenteCount",
      "outputs": [
        {
          "internalType": "uint256",
          "name": "",
          "type": "uint256"
        }
      ],
      "payable": false,
      "stateMutability": "view",
      "type": "function"
    },
    {
      "constant": true,
      "inputs": [
        {
          "internalType": "uint256",
          "name": "",
          "type": "uint256"
        }
      ],
      "name": "venteToOwner",
      "outputs": [
        {
          "internalType": "address",
          "name": "",
          "type": "address"
        }
      ],
      "payable": false,
      "stateMutability": "view",
      "type": "function"
    },
    {
      "constant": true,
      "inputs": [
        {
          "internalType": "uint256",
          "name": "",
          "type": "uint256"
        }
      ],
      "name": "ventes",
      "outputs": [
        {
          "internalType": "address",
          "name": "acheteur",
          "type": "address"
        },
        {
          "internalType": "address",
          "name": "vendeur",
          "type": "address"
        },
        {
          "internalType": "enum Transaction.VenteStatut",
          "name": "status",
          "type": "uint8"
        }
      ],
      "payable": false,
      "stateMutability": "view",
      "type": "function"
    },
    {
      "constant": false,
      "inputs": [
        {
          "internalType": "address",
          "name": "vendeur",
          "type": "address"
        }
      ],
      "name": "send",
      "outputs": [],
      "payable": false,
      "stateMutability": "nonpayable",
      "type": "function"
    },
    {
      "constant": true,
      "inputs": [
        {
          "internalType": "address",
          "name": "_owner",
          "type": "address"
        }
      ],
      "name": "getVenteByOwner",
      "outputs": [
        {
          "internalType": "uint256[]",
          "name": "",
          "type": "uint256[]"
        }
      ],
      "payable": false,
      "stateMutability": "view",
      "type": "function"
    },
    {
      "constant": false,
      "inputs": [
        {
          "internalType": "uint256",
          "name": "transactionId",
          "type": "uint256"
        }
      ],
      "name": "confirmReception",
      "outputs": [],
      "payable": false,
      "stateMutability": "nonpayable",
      "type": "function"
    },
    {
      "constant": false,
      "inputs": [
        {
          "internalType": "uint256",
          "name": "transactionId",
          "type": "uint256"
        }
      ],
      "name": "cancelTransaction",
      "outputs": [],
      "payable": false,
      "stateMutability": "nonpayable",
      "type": "function"
    }
  ],
  "bytecode": "0x60806040526000805534801561001457600080fd5b50610b4b806100246000396000f3fe608060405234801561001057600080fd5b50600436106100935760003560e01c80638547b0e4116100665780638547b0e4146101905780638594fc41146101fe57806397dee777146102b4578063c4190ac814610322578063e8e1070c1461037a57610093565b80631bfdcc52146100985780633380c0d8146100c65780633e58c58c146100f4578063410d183d14610138575b600080fd5b6100c4600480360360208110156100ae57600080fd5b8101908080359060200190929190505050610413565b005b6100f2600480360360208110156100dc57600080fd5b810190808035906020019092919050505061048d565b005b6101366004803603602081101561010a57600080fd5b81019080803573ffffffffffffffffffffffffffffffffffffffff169060200190929190505050610507565b005b61017a6004803603602081101561014e57600080fd5b81019080803573ffffffffffffffffffffffffffffffffffffffff169060200190929190505050610805565b6040518082815260200191505060405180910390f35b6101bc600480360360208110156101a657600080fd5b810190808035906020019092919050505061081d565b604051808273ffffffffffffffffffffffffffffffffffffffff1673ffffffffffffffffffffffffffffffffffffffff16815260200191505060405180910390f35b61022a6004803603602081101561021457600080fd5b8101908080359060200190929190505050610850565b604051808473ffffffffffffffffffffffffffffffffffffffff1673ffffffffffffffffffffffffffffffffffffffff1681526020018373ffffffffffffffffffffffffffffffffffffffff1673ffffffffffffffffffffffffffffffffffffffff16815260200182600281111561029e57fe5b60ff168152602001935050505060405180910390f35b6102e0600480360360208110156102ca57600080fd5b81019080803590602001909291905050506108d4565b604051808273ffffffffffffffffffffffffffffffffffffffff1673ffffffffffffffffffffffffffffffffffffffff16815260200191505060405180910390f35b6103646004803603602081101561033857600080fd5b81019080803573ffffffffffffffffffffffffffffffffffffffff169060200190929190505050610907565b6040518082815260200191505060405180910390f35b6103bc6004803603602081101561039057600080fd5b81019080803573ffffffffffffffffffffffffffffffffffffffff16906020019092919050505061091f565b6040518080602001828103825283818151815260200191508051906020019060200280838360005b838110156103ff5780820151818401526020810190506103e4565b505050509050019250505060405180910390f35b60006005828154811061042257fe5b906000526020600020906002020160010160146101000a81548160ff0219169083600281111561044e57fe5b02179055507fba0179b5ce41bc704ad4343c0494bb387b015329b1ba3f3993d31ce602778042816040518082815260200191505060405180910390a150565b60016005828154811061049c57fe5b906000526020600020906002020160010160146101000a81548160ff021916908360028111156104c857fe5b02179055507f40e58ee57cbfe74d40a14ae6415beb600e320cffce987b1449899a4608d2fbf8816040518082815260200191505060405180910390a150565b6000808154809291906001019190505550600560405180606001604052803373ffffffffffffffffffffffffffffffffffffffff1681526020018373ffffffffffffffffffffffffffffffffffffffff16815260200160028081111561056957fe5b8152509080600181540180825580915050906001820390600052602060002090600202016000909192909190915060008201518160000160006101000a81548173ffffffffffffffffffffffffffffffffffffffff021916908373ffffffffffffffffffffffffffffffffffffffff16021790555060208201518160010160006101000a81548173ffffffffffffffffffffffffffffffffffffffff021916908373ffffffffffffffffffffffffffffffffffffffff16021790555060408201518160010160146101000a81548160ff0219169083600281111561064957fe5b021790555050505033600160008054815260200190815260200160002060006101000a81548173ffffffffffffffffffffffffffffffffffffffff021916908373ffffffffffffffffffffffffffffffffffffffff16021790555080600260008054815260200190815260200160002060006101000a81548173ffffffffffffffffffffffffffffffffffffffff021916908373ffffffffffffffffffffffffffffffffffffffff160217905550600360003373ffffffffffffffffffffffffffffffffffffffff1673ffffffffffffffffffffffffffffffffffffffff16815260200190815260200160002060008154809291906001019190505550600460008273ffffffffffffffffffffffffffffffffffffffff1673ffffffffffffffffffffffffffffffffffffffff168152602001908152602001600020600081548092919060010191905055507f9bb0f5eb3056e50e04941b18537c54d07f019ba4bb3b912b87c1e033810db1bf81600054604051808373ffffffffffffffffffffffffffffffffffffffff1673ffffffffffffffffffffffffffffffffffffffff1681526020018281526020019250505060405180910390a150565b60036020528060005260406000206000915090505481565b60026020528060005260406000206000915054906101000a900473ffffffffffffffffffffffffffffffffffffffff1681565b6005818154811061085d57fe5b90600052602060002090600202016000915090508060000160009054906101000a900473ffffffffffffffffffffffffffffffffffffffff16908060010160009054906101000a900473ffffffffffffffffffffffffffffffffffffffff16908060010160149054906101000a900460ff16905083565b60016020528060005260406000206000915054906101000a900473ffffffffffffffffffffffffffffffffffffffff1681565b60046020528060005260406000206000915090505481565b606080600460008473ffffffffffffffffffffffffffffffffffffffff1673ffffffffffffffffffffffffffffffffffffffff16815260200190815260200160002054600360008573ffffffffffffffffffffffffffffffffffffffff1673ffffffffffffffffffffffffffffffffffffffff16815260200190815260200160002054016040519080825280602002602001820160405280156109d15781602001602082028038833980820191505090505b509050600080905060008090505b600580549050811015610b0b578473ffffffffffffffffffffffffffffffffffffffff166001600083815260200190815260200160002060009054906101000a900473ffffffffffffffffffffffffffffffffffffffff1673ffffffffffffffffffffffffffffffffffffffff161415610a755780838381518110610a6057fe5b60200260200101818152505081806001019250505b8473ffffffffffffffffffffffffffffffffffffffff166002600083815260200190815260200160002060009054906101000a900473ffffffffffffffffffffffffffffffffffffffff1673ffffffffffffffffffffffffffffffffffffffff161415610afe5780838381518110610ae957fe5b60200260200101818152505081806001019250505b80806001019150506109df565b50819250505091905056fea265627a7a72315820acec3342eee653252da43fc902e3cda32e38b277970c7924c9187f76311bc73f64736f6c63430005100032",
  "source": "pragma solidity ^0.5.0;\n\nimport \"./ConvertLib.sol\";\n\n// This is just a simple example of a coin-like contract.\n// It is not standards compatible and cannot be expected to talk to other\n// coin/token contracts. If you want to create a standards-compliant\n// token, see: https://github.com/ConsenSys/Tokens. Cheers!\n\ncontract Transaction {\n\n  struct Vente {\n    address acheteur;\n    address vendeur;\n    VenteStatut status;\n  }\n\n  enum VenteStatut {\n    Ok,\n    Cancelled,\n    Transit\n  }\n\n  uint256 venteSequence = 0;\n\n  mapping(uint256 => address) public achatToOwner;\n  mapping(uint256 => address) public venteToOwner;\n  mapping(address => uint) public ownerAchatCount;\n  mapping(address => uint) public ownerVenteCount;\n\n  Vente[] public ventes;\n\n  event addVente(address receiver, uint256 id);\n  event confirm(uint256 id);\n  event cancel(uint256 id);\n\n  function send(address vendeur) public  {\n    venteSequence++;\n    ventes.push(Vente({\n      acheteur: msg.sender,\n      vendeur: vendeur,\n      status: VenteStatut.Transit\n    }));\n    achatToOwner[venteSequence] = msg.sender;\n    venteToOwner[venteSequence] = vendeur;\n    ownerAchatCount[msg.sender]++;\n    ownerVenteCount[vendeur]++;\n\n    emit addVente(vendeur, venteSequence);\n  }\n\n  function getVenteByOwner(address _owner) external view returns(uint[] memory) {\n    uint[] memory result = new uint[](ownerAchatCount[_owner] + ownerVenteCount[_owner]);\n    uint counter = 0;\n    for (uint i = 0; i < ventes.length; i++) {\n      if (achatToOwner[i] == _owner) {\n        result[counter] = i;\n        counter++;\n      }\n\n      if (venteToOwner[i] == _owner) {\n        result[counter] = i;\n        counter++;\n      }\n    }\n    return result;\n  }\n\n  function confirmReception(uint transactionId) public {\n    ventes[transactionId].status = VenteStatut.Ok;\n    emit confirm(transactionId);\n  }\n\n  function cancelTransaction(uint transactionId) public {\n    ventes[transactionId].status = VenteStatut.Cancelled;\n    emit cancel(transactionId);\n  }\n\n}\n",
  "sourcePath": "/home/jocam/Documents/esgi/blockchain/angular/contracts/Transaction.sol",
  "compiler": {
    "name": "solc",
    "version": "0.5.16+commit.9c3226ce.Emscripten.clang"
  },
  "schemaVersion": "3.4.10",
  "updatedAt": "2022-09-16T12:11:44.531Z",
  "networkType": "ethereum",
  "devdoc": {
    "methods": {}
  },
  "userdoc": {
    "methods": {}
  }
}